:020000040800F2
:10000000080500204501000813130008A90C00088A
:10001000111300089D070008D11800080000000017
:100020000000000000000000000000007D16000835
:100030009F07000800000000A115000841170008F4
:100040005F0100085F0100085F0100085F01000810
:100050005F0100085F0100085F0100085F01000800
:100060005F0100085F0100085F0100085F010008F0
:100070005F0100085F0100085F0100085F010008E0
:100080005F0100085F0100085F0100085F010008D0
:100090005F0100085F0100085F0100085F010008C0
:1000A0005F0100085F0100085F0100085F010008B0
:1000B0005F0100085F0100085F0100085F010008A0
:1000C0005F0100085F0100085F0100085F01000890
:1000D0005F0100085F0100085F0100085F01000880
:1000E0005F0100085F0100085F0100085F01000870
:1000F0005F0100085F0100085F0100085F01000860
:100100005F0100085F0100085F0100085F0100084F
:100110005F0100085F0100085F0100085F0100083F
:100120005F0100085F0100085F0100085F0100082F
:10013000DFF80CD000F004FB004800472D24000835
:10014000080500200648804706480047FEE7FEE70E
:10015000FEE7FEE7FEE7FEE7FEE7FEE7FEE7FEE777
:1001600045170008310100082DE9FE4F804681EA5D
:100170000300C00F0C46009021F0004123F0004521
:10018000B8EB0200A94105D24046214690461C46E4
:100190000B46024623F00040104347D0270DC7F31B
:1001A0000A00C3F30A510290401A019040286BDA0A
:1001B000C3F3130040F4801B0098924620B1002343
:1001C000D2EB030A63EB0B0B01985946C0F14002D6
:1001D000504600F00EFA06460D4650465946019A22
:1001E00000F026FA10EB08006141002487EA115262
:1001F00084EAE7731A4340D0009A62B3019A012A55
:100200004FEA075215DC001B61EB02014FF0004280
:1002100002EA0752CDE90042001C41F58011324646
:100220002B4600F026FA03B0BDE8F08F4046214689
:10023000F9E7001B61EB0201001C41F58013001877
:100240005B412018A2F5001747EB030140EAD57087
:10025000B6196D4111E06D084FEA360645EAC075E2
:100260004FEA0752001B61EB0201001C41F58011AF
:1002700049084FEA30000019514132462B4603B07D
:10028000BDE8F04F00F0E6B90098012240000023DD
:10029000D0EB020263EBE073009821464FEAE07472
:1002A000B8EB000061EB0401E9E783F000435BE792
:1002B00081F0004158E72DE9FE4F81EA030404F084
:1002C000004421F0004100944FF0000B23F0004364
:1002D00050EA01045ED052EA03045BD0C3F30A542F
:1002E000C1F30A552C44A4F2F3340194A0FB025448
:1002F000C1F3130141F48011C3F3130343F48013DA
:1003000001FB024400FB034E840A970A44EA81542D
:1003100047EA8357A4FB076802958D0A05FB07850A
:100320004FEA932C04FB0C542705029D4FEA065814
:1003300047EA1637B5EB08056EEB070C870E920EF1
:1003400047EA811742EA8312A7FB0201B6EB0B01D1
:1003500064EB00042B0D43EA0C335E1844EB1C5095
:10036000DA465146E7FB0201C5F313044FEA0B33AB
:1003700043EA14534FEA0432019C43EA0603A4F112
:100380000C040294009CCDE900B400F072F903B0B3
:10039000BDE8F08F00200146F9E72DE9F04D81EA34
:1003A000030404F0004B21F0004514464FF0000A0E
:1003B00023F0004150EA050220D054EA01021DD08A
:1003C000C5F30A570246C5F31303C1F31300C1F383
:1003D0000A5640F4801543F48013A7EB0608101B5F
:1003E000D64608F2FD3873EB050002D308F1010888
:1003F00001E092185B41B8F1000F03DA00200146DA
:10040000BDE8F08D00204FF48011064684460EE0D2
:10041000171B73EB050705D3121B63EB050306439C
:100420004CEA010C49084FEA300092185B4150EA4F
:100430000107EDD152EA030012D082EA040083EAF8
:100440000501084305D0101BAB4106D20122002351
:1004500006E000224FF0004302E06FF0010253106B
:100460001AEB06004CEB085110EB0A0041EB0B01B4
:10047000BDE8F04D00F0EEB80EB540F23341029108
:100480000021CDE900110A460B4600F0F2F803B056
:1004900000BD70B5C1F30A5201F000450024C1F35C
:1004A000130140F2FF3341F480119A4201DA002037
:1004B00070BD40F233439A42A2F2334203DC52420F
:1004C00000F0A6F800E090402C43F1D0404270BD0F
:1004D000C1F30A5210B5C1F3130140F2FF3341F4E6
:1004E00080119A4201DA002010BD40F233439A4253
:1004F000A2F2334203DC524200F08AF810BD904071
:1005000010BD000030B5041E71F1000404DB4FF093
:100510000044404264EB0101141E73F1000405DB4A
:100520001C464FF00043524263EB04038B4208BF6A
:10053000824230BD30B5041E71F1000404DB4FF07F
:100540000044404264EB0101141E73F1000405DB1A
:100550001C464FF00043524263EB0403994208BF2C
:10056000904230BD30B50B460146002020220124C8
:1005700009E021FA02F59D4205D303FA02F5491B71
:1005800004FA02F52844151EA2F10102F1DC30BD87
:100590002DE9F05F0546002092469B4688460646B8
:1005A000814640241BE0284641464746224600F04B
:1005B0002FF853465A46C01A914110D31146184697
:1005C000224600F016F82D1A67EB01084F46224626
:1005D0000120002100F00DF817EB00094E41201E0C
:1005E000A4F10104DFDC484631462A464346BDE813
:1005F000F09F202A04DB203A00FA02F10020704725
:100600009140C2F1200320FA03F319439040704750
:10061000202A04DB203A21FA02F00021704721FA57
:1006200002F3D040C2F120029140084319467047BE
:10063000202A06DBCB17203A41FA02F043EAE073A6
:1006400006E041FA02F3D040C2F120029140084393
:100650001946704710B5141E73F1000408DA401CE7
:1006600041F1000192185B411A4301D120F00100D1
:1006700010BD2DE9F04D92469B4611B1B1FA81F2C1
:1006800002E0B0FA80F220329046FFF7B2FF044653
:100690000F4640EA0A0041EA0B0153465A46084316
:1006A00013D0114653EA010019D0C8F14002504658
:1006B000FFF7AEFF05460E46504659464246FFF745
:1006C00098FF084305D0012004E020463946BDE8E4
:1006D000F08D0020054346EAE0762C4337430A9824
:1006E0006305E40AA0EB08000022FD0A44EA47542F
:1006F0000A3002D500200146E9E7010510196941D9
:10070000DDE9084500196941BDE8F04DA2E7C1F3F4
:100710000A52C1F3130140F2FF3341F480119A42AF
:1007200002DA00200146704740F233439A42A2F2B7
:10073000334202DC5242FFF76BBFFFF75ABF0000A3
:10074000064C074D06E0E06840F0010394E807001E
:1007500098471034AC42F6D3FFF7EEFCDC2F0008CC
:10076000FC2F000838B50121082000F033FF4FF4BA
:100770008074ADF8004010208DF803000320064D72
:100780008DF802006946284600F032FA21462846D4
:1007900000F086FA38BD0000000C0140FEE770470B
:1007A00008B50021009100E0401E0028FCD100980F
:1007B000401C00906428FADB08BD000010B56FF003
:1007C000040000F0B1FF094809490068B0FBF1F0EE
:1007D000C1B2084801EB41020170C2EBC1114FF6F2
:1007E000FF7202EAC101418010BD0000000000203C
:1007F00000127A00280000200B49498848434FF036
:10080000E021486100228A61086940F00100086126
:100810000869C30701D0C003FAD5086920F00100B8
:1008200008618A6170470000280000202DE9F04728
:1008300089468046642418212A2000F0A1F8B8F1E6
:10084000000F09D0B8F1010F0AD0B8F1020F0BD098
:10085000B8F1030F17D10BE000270126082512E09D
:100860000227032604250EE00427052602250AE0B8
:1008700006270726012506E018212A2000F080F827
:10088000641E24B28CB12842F6D074B139462A20B5
:1008900000F076F8040431462A2000F071F8204375
:1008A000C9F800000120BDE8F0870020FBE710B583
:1008B0007F212A2000F064F8A0F54051553901D07D
:1008C000002010BD00F082F841F28834214600205B
:1008D00000F030F92146012000F02CF921460220D9
:1008E00000F028F92146032000F024F9C821002057
:1008F00000F038F9C821012000F034F9C8210220A5
:1009000000F030F9C821032000F02CF90122022167
:10091000002000F061F801220221104600F05CF88E
:1009200002210122084600F057F80122022103208B
:1009300000F052F8012000F0D0F8012000F095F806
:10094000012000F081F8002000F0B6F80522022115
:10095000012000F0E0F80B21002000F097F80B21B7
:10096000012000F093F80B21022000F08FF80B21FA
:10097000032000F08BF8002000F00AF9012010BDE0
:1009800070B50D46044600F0A7FB6006000E00F0AF
:100990006BFB00F0EDFB284600F066FB00F0E8FB87
:1009A00000F09AFB012000EB4400C0B200F05CFBB9
:1009B00000F0DEFB012000F01DFB0402002000F02F
:1009C00019FB044300F0AEFB204670BD1C214FF420
:1009D00000422A2000F0EDB870B504464FF6FF70D3
:1009E00000EA0135C2F309000543144801551046D9
:1009F000FFF742FD02460B4600201149FFF7CDFCF0
:100A0000104A02EBC402C2E9000164B1012C0DD00E
:100A1000022C0ED0032C0FD12A461721BDE87040BE
:100A20002A2000F0C6B82A461421F7E72A461521E5
:100A3000F4E72A461621F1E770BD000060000020AF
:100A4000D0128341E800002010B504461A212A2064
:100A5000FFF796FF20F400720CB142F400721A21E5
:100A6000BDE810402A2000F0A4B810B504461A21B1
:100A70002A20FFF785FF20F400620CB142F40062E7
:100A80001A21BDE810402A2000F093B84FF6FF72FB
:100A900002EAC12248B1012809D0022809D003285E
:100AA00009D121212A2000F084B81E21FAE71F2154
:100AB000F8E72021F6E7704710B504461A212A20EE
:100AC000FFF75EFF20F040020CB142F040021A2115
:100AD000BDE810402A2000F06CB810B504461A2179
:100AE0002A20FFF74DFF20F080020CB142F0800277
:100AF0001A212A2000F05DF819212A20FFF740FF73
:100B000020F001020CB142F001021921BDE81040B1
:100B10002A2000F04EB838B1C00340EA41301043FB
:100B200080B240F4027201E042F402721B212A20DA
:100B300000F03FB8FF2914D950B101280BD002288A
:100B40000CD003280DD10A460B212A2000F031B821
:100B50000A460821F9E70A460921F6E70A460A216A
:100B6000F3E7704750B101280BD002280CD00328BE
:100B70000DD10A4613212A2000F01BB80A46102185
:100B8000F9E70A461121F6E70A461221F3E7704712
:100B900010B504461A212A20FFF7F2FE20F4005275
:100BA0000CB142F400521A21BDE810402A20AFF3E4
:100BB000008070B514460E46054600F08DFA6806B2
:100BC000000E00F051FA00F0D3FA304600F04CFA73
:100BD00000F0CEFA200A00F047FA00F0C9FAE0B2BD
:100BE00000F042FA00F0C4FABDE8704000F09ABA92
:100BF000F0B5CA78002502F00F03D20601D58A7835
:100C000013430A784FF00F0E12F0FF0F4FF001025E
:100C10001CD004680F8802FA05F63740B74211D19C
:100C20004FEA850C0EFA0CF724EA070703FA0CF4D6
:100C30003C43CF78282F02D0482F02D002E04661F3
:100C400000E006616D1C082DE4D304600C88FF2CC5
:100C50001ED944685FF0000606F1080702FA07F59E
:100C60000F882F40AF420FD14FEA860C0EFA0CF7D7
:100C7000BC4303FA0CF73C43CF78282F00D14561E1
:100C8000CF78482F00D10561761C082EE4D344604C
:100C9000F0BD0246002092680A4200D00120704751
:100CA0004161704701617047FEE702460020938A68
:100CB000128B43EA024323F07F42914300D101208B
:100CC00070470029018802D041F0010101E021F0C4
:100CD000010101807047000010B5012186B0480570
:100CE00000F060FC0121082000F074FCC020ADF889
:100CF000100003208DF812001C208DF8130004A9A9
:100D00001148FFF775FF114C204600F023F8002032
:100D1000ADF804004BF6FF70ADF806003020ADF8DA
:100D200008002015ADF80A000001ADF80C000848D5
:100D3000009001212046FFF7C4FF6946204600F0DD
:100D400049F806B010BD0000000C014000540040FE
:100D5000801A0600094910B588424FF0010101D1FF
:100D60004C0501E04FF48004204600F027FC2046AB
:100D7000BDE81040002100F021BC000000540040FC
:100D80000029018802D041F4807101E021F48071D2
:100D9000018070470029018802D041F4007101E010
:100DA00021F40071018070470CB5024600200092CA
:100DB0000A0F21F07F41019202D0009A143202E022
:100DC000009A090C1832009212680A4200D00120E1
:100DD0000CBD000070B50446808886B00D4620F03A
:100DE0003F06684600F002FC27490298B0FBF1F18B
:100DF00089B20E43A680228822F001022280234B72
:100E00002A689A421CD85200B0FBF2F080B2042843
:100E100000D20420491C2184A083208840F00100D6
:100E2000208021884FF6F5300140A8886A89104358
:100E300008432080A88929890843208106B070BD15
:100E4000EB88A3F53F46FF3E0BD002EBC20303EB5A
:100E50000212B0FBF2F080B240F48040020506D0EE
:100E600007E002EB4202B0FBF2F080B2F6E740F09E
:100E700001004FF4967251434FF47A72B1FBF2F1D4
:100E800040F40040C6E7000040420F00A086010089
:100E900012B141F0010101E001F0FE010182704751
:100EA000018270472DE9F0411E4C0D4606464FF475
:100EB000003739462046FFF777FF0028F9D1012196
:100EC0002046FFF75DFF184F20463946FFF7EDFE3D
:100ED0000028F9D0002278212046FFF7D9FF134FD0
:100EE00020463946FFF7E1FE0028F9D0314620467A
:100EF000FFF7D6FF0D4EB61C31462046FFF7D5FE54
:100F00000028F9D029462046FFF7CAFF314620467F
:100F1000FFF7CBFE0028F9D02046BDE8F0410121C3
:100F2000FFF738BF005400400100030082000700B3
:100F300070B5114C4FF4805529462046FFF7B0FE9E
:100F4000606820F470406060606840F44050606009
:100F5000E1142046FFF7A4FE0220FFF721FC2946FA
:100F60002046FFF79FFE0220FFF71AFC2946204685
:100F7000BDE87040FFF794BE0010014008B50121A4
:100F8000102000F027FB4FF4C050ADF80000032004
:100F90008DF8020010208DF8030069460148FFF724
:100FA00027FE08BD0010014070B5114C4FF480556C
:100FB00029462046FFF774FE606820F470406060A8
:100FC000606840F440506060E1142046FFF76AFE1C
:100FD0000220FFF7E5FB29462046FFF763FE0220CB
:100FE000FFF7DEFB29462046BDE87040FFF758BEFC
:100FF000001001402DE9F0471A4C8046002560683A
:1010000020F470406060606840F4004060602E46EC
:10101000A7144FF4006939462046FFF741FE02202D
:10102000FFF7BEFB39462046FFF73CFE6806050E7B
:1010300049462046FFF72DFE08B16D1CEDB2012098
:10104000FFF7AEFB761CF6B2082EE4D3B8F1000F22
:1010500004D0FFF76DFF2846BDE8F087FFF7A4FF37
:10106000F9E70000001001402DE9F041194C064657
:101070002046616821F470416160616841F440512B
:101080006160A7143946FFF70BFE00254FF4006896
:1010900030064146204602D5FFF704FE01E0FFF787
:1010A000FFFD7006060E0220FFF77AFB3946204648
:1010B000FFF7F8FD0220FFF773FB39462046FFF7E4
:1010C000EFFD0220FFF76CFB6D1CEDB2082DDFD3A6
:1010D000BDE8F0810010014070B5114C606820F44B
:1010E00070406060606840F440506060E5142946DC
:1010F0002046FFF7D7FDA61431462046FFF7D2FD64
:101100000420FFF74DFB29462046FFF7C9FD0420C8
:10111000FFF746FB31462046BDE87040FFF7C0BDF3
:101120000010014070B5114C606820F470406060A0
:10113000606840F440506060A51429462046FFF7DF
:10114000AFFDE61431462046FFF7AAFD0420FFF765
:1011500027FB29462046FFF7A5FD31462046FFF72D
:10116000A1FDBDE870400420FFF71ABB001001404C
:1011700070B5134C606820F470406060606840F4A3
:1011800000406060E51429462046FFF78BFD0120F2
:10119000FFF706FBA61431462046FFF783FD01202A
:1011A000FFF7FEFA29462046FFF773FD0520FFF7FB
:1011B000F7FA31462046FFF773FD002070BD0000AE
:1011C000001001402DE9FF5F1D46DDE90E83DFF8C9
:1011D00074B099462B46DBE90867DBE90A01FEF7A4
:1011E000C3FF0D4604464B464246FEF7BDFF02468E
:1011F0000B4620462946FFF7D0F881468A46DDE9AE
:10120000000132463B46FFF750F84A465346FFF787
:1012100052F832463B46FEF7A7FF06460F464A46BF
:10122000534600200849FFF740F822462B46FFF7B7
:1012300042F8CBE90867CBE90A0104B030463946E9
:10124000BDE8F09F300000200000F03F38B50121DC
:10125000402000F0BFF94FF48070ADF80000094D58
:1012600004248DF8034069462846FFF7C1FCE001DD
:10127000ADF800008DF8034069462846FFF7B8FC3A
:1012800038BD00000010014070B50C460546FFF760
:1012900000FD08B1012070BD21462846FFF7F9FC8A
:1012A0000028F9D042F21070FFF7A6FA002070BDB6
:1012B00038B50121082000F08DF92020ADF800009C
:1012C00010208DF803000320104C8DF802006946B1
:1012D0002046FFF78DFC0120ADF80000694620464E
:1012E000FFF786FC0220ADF8000069462046FFF7B4
:1012F0007FFC20212046FFF7D5FC01212046FFF787
:10130000D1FC02212046FFF7CDFC38BD000C014086
:10131000FEE77047002000F001B8000070B50646F7
:101320005FF0000404F1B000C0B200F0D2FA002077
:1013300000F0CFFA102000F0CCFA0025304600F083
:10134000CCFA6D1CEDB2802DF8D3641CE4B2082CED
:10135000E8D370BD10B56420FFF74EFAAE2000F060
:10136000B8FA202000F0B5FA102000F0B2FAB02050
:1013700000F0AFFAC82000F0ACFA002000F0A9FAA3
:10138000102000F0A6FA402000F0A3FA812000F01F
:10139000A0FAFF2000F09DFAA12000F09AFAA62002
:1013A00000F097FAA82000F094FA3F2000F091FA9C
:1013B000A42000F08EFAD32000F08BFA002000F079
:1013C00088FAD52000F085FAF02000F082FAD920C2
:1013D00000F07FFA222000F07CFADA2000F079FA9F
:1013E000122000F076FADB2000F073FA202000F0E3
:1013F00070FA8D2000F06DFA142000F06AFABDE852
:101400001040AF2000F065BA10B50446B031C8B244
:1014100000F05FFA102040EA141000F05AFA04F0CD
:101420000F00BDE8104040F0010000F052BA00008B
:101430002DE9F0410F46804600255401FFF7E4FFF7
:101440000C4E305D00F049FA6D1CEDB2641C102D9D
:10145000F7D37F1CF9B24046FFF7D6FF0025305D79
:1014600000F03BFA6D1CEDB2641C102DF7D3BDE803
:10147000F0810000640000202DE9F047002591462E
:101480008A460446012B22D0DFF8BC80022B24D1EF
:1014900055E02038C7B27E2C04D90AF1010000249F
:1014A00000F0FF0A51462046FFF7AEFF07EB47006A
:1014B000002608EB4007B85D00F00FFA761CF6B284
:1014C000062EF8D3A41D6D1CE4B2EDB201E0DFF8E6
:1014D0007C8019F805000028DBD1BDE8F0872038B2
:1014E000C7B2782C04D90AF10100002400F0FF0AE9
:1014F00051462046FFF788FF5FF0000606EB071114
:1015000018F8010000F0E9F9761CF6B2082EF5D3C0
:101510000AF10100C1B22046FFF776FF5FF0000636
:1015200006EB071101EB0800007A00F0D6F9761CF3
:10153000F6B2082EF4D308346D1CE4B2EDB219F8FB
:1015400005000028CBD1C8E7EC290008C427000813
:10155000F8B56424B2FBF4F600230A24B6FBF4F7D2
:1015600004FB176600938DF80060B2FBF4F6B6FB3F
:10157000F4F704FB17668DF80160B2FBF4F604FB88
:1015800016228DF802208DF803306A46D45C303480
:10159000D4545B1C032BF9D30223FFF76DFFF8BD76
:1015A00070470000044A0029D16901D0014300E0DE
:1015B0008143D1617047000000100240044A0029B5
:1015C000116901D0014300E08143116170470000BF
:1015D00000100240044A0029916901D0014300E053
:1015E00081439161704700000010024030B51F49EF
:1015F0004A6812F00C031E4A03D0042B01D0082BBA
:1016000021D002604A680F231A4C03EA1212A35C2D
:101610000268DA4042604B68072505EA1323E35C61
:1016200022FA03F383604B6805EAD323E35CDA40D4
:10163000C2604968032303EA9131231F595CB2FB5E
:10164000F1F1016130BD4A684B6802F470124FF04D
:10165000020413F4803F04EB924202D04B689B03D8
:1016600001D5054B00E0024B5A43CAE70010024087
:1016700000127A001800002000093D0070470000A9
:101680000CB50021264801910091026842F4803295
:1016900002604FF4A063026802F400320092019AE3
:1016A000521C0192009A12B9019A9A42F3D102682F
:1016B000920333D5012100911A490A6842F01002C1
:1016C0000A600A6822F003020A600A6842F0020215
:1016D0000A604168416041684160416841F480614D
:1016E0004160416821F47C114160416841F4E81196
:1016F0004160016841F08071016001688901FCD599
:10170000416821F003014160416841F002014160FC
:101710004168C1F381010229FAD10CBD00910CBDD1
:1017200000100240002002404FF0E0210428086928
:1017300003D020F004000861704740F00400FAE78D
:10174000704700000F4810B5016841F001010160C9
:1017500041680D4A1140416001680C4A1140016026
:10176000016821F480210160416821F4FE0141609B
:101770004FF41F018160FFF783FF05494FF00060C0
:10178000086010BD001002400000FFF8FFFFF6FEE9
:1017900008ED00E030B5044685B0012144F20400B4
:1017A000FFF718FF4FF40070ADF8100003208DF81C
:1017B00012001820144D8DF8130004A92846FFF7D5
:1017C00017FA2815ADF8100004208DF8130004A9AD
:1017D0002846FFF70DFA0020ADF804000094ADF89C
:1017E0000600ADF80800ADF80C000C20074CADF871
:1017F0000A006946204600F015F80121204600F055
:1018000007F805B030BD0000000801400038014075
:101810000029818902D041F4005101E021F40051F6
:101820008181704730B50446008A85B00D464CF67C
:10183000FF710840E98801432182A1894EF6F31027
:101840000140A8882A8910436A890A431043A0816D
:10185000A08A4FF6FF410840A9890143A18268464A
:10186000FFF7C4FE1948844201D1039800E00298B2
:10187000A189090400EBC00101EB0010296801D522
:10188000490000E08900B0FBF1F06422B0FBF2F106
:1018900009010B096FF018056B4300EB8300A38966
:1018A0001D044FF0320306D503EBC000B0FBF2F08D
:1018B00000F0070005E003EB0010B0FBF2F000F0D1
:1018C0000F000843208105B030BD00000038014002
:1018D000FEE701460020FFF7E5BA01464020FFF78A
:1018E000E1BA00000FB4054B10B503A9044A0298F1
:1018F00000F0CAF810BC5DF814FB000015240008C5
:10190000E400002002E008C8121F08C1002AFAD132
:1019100070477047002001E001C1121F002AFBD16F
:10192000704700002DE9FF5FDDE90220010DDDF8C1
:1019300038B0024318D044F61050A1F2FF314143B1
:101940000D140F98012820D0A5EB0B00401C5FEA76
:10195000000A4FF00004474EDFF81C91A0465046A5
:1019600016D5CAF1000728E00F98012443A20128E8
:1019700008D0002100980F9BC0E90021C0E9024374
:10198000BDE8FF9F6FEA0B01F4E7CBF10000DEE753
:10199000074612E0F80707D022463346404649463C
:1019A000FEF789FC80468946224633461046194692
:1019B000FEF781FC04460E467F10002FEAD1DDE9D8
:1019C0000201BAF1000F42464B4602DAFEF773FC01
:1019D00001E0FEF7E2FC04460E460022284BFEF72B
:1019E000A9FD03D84FF0FF30014607E00022254B48
:1019F00020463146FEF7B8FBFEF789FE102409E0C9
:101A0000002C0ADB0A220023FEF7C2FD019B3032C4
:101A10001A55641E50EA0102F2D1641C019AC4F105
:101A2000110314440F9A012A03D0012208430DD157
:101A30000AE0084304D000204FF0110B0F9080E71C
:101A4000A3EB0B056D1E0DE05B4504DD4FF00002BE
:101A500005F1010504E003DA4FF00002A5F10105EC
:101A6000002AECD000980F99C0E90231C0E9004586
:101A700086E70000000024400000F03F3000000036
:101A80000000F0430000E03F2DE9FF4F95B09B467A
:101A90008946064600250FE2252877D100242746EF
:101AA000F84A0121059400E0044316F8013F203B69
:101AB00001FA03F01042F7D130782A2811D06FF0E4
:101AC0002F033078A0F13002092A16D8059A44F085
:101AD000020402EB820203EB42021044761C0590E2
:101AE000EFE759F8042B0592002A03DA504244F438
:101AF0000054059044F00204761C30782E2816D14C
:101B000016F8010F44F004042A280DD06FF02F02BC
:101B10003078A0F13003092B09D807EB870302EBDB
:101B20004303C718761CF3E759F8047B761C30781A
:101B30006C280FD006DC4C2817D068280DD06A28F6
:101B400014D104E0742810D07A280FD10DE044F4A9
:101B500000140AE044F4801401E044F44014727864
:101B6000824202D104F58014761C761C30786628F7
:101B70000BD013DC582877D009DC002875D0452815
:101B8000F6D04628F4D047281AD19DE118E0632802
:101B900035D0642879D0652812D195E1702873D0AA
:101BA00008DC6728F1D069286FD06E280DD06F2827
:101BB00006D1B5E073282CD0752875D0782874D05C
:101BC0005A46179990476D1C75E1C4F302500228DC
:101BD00009D003280DD0D9F8001004280DD00D60CD
:101BE00009F1040967E1D9F80010EA17C1E90052C8
:101BF000F6E7D9F800100D80F2E70D70F0E719F85C
:101C0000041B8DF8001000208DF80100EA46012029
:101C100003E059F804AB4FF0FF3061074FF00001CB
:101C200002D40DE008F101018846B9420FDA80457F
:101C3000F8DB1AF808100029F4D108E008F10101D6
:101C400088468142FADB1AF808100029F6D1059877
:101C50005B46A0EB080721463846179A00F094FA35
:101C6000284400EB080507E04DE029E10DE01AF8F3
:101C7000010B5A4617999047B8F10108F7D25B4615
:101C800021463846179A13E142E00A220092C4F333
:101C900002524FF0000A022A08D059F804CB032A56
:101CA0004FEAEC710AD00DE029E02AE009F10701C2
:101CB00021F00702F2E802C1914609E00FFA8CFC1C
:101CC0004FEAEC71042A03D14FFA8CFC4FEAEC7115
:101CD000002907DA0A460021DCF1000C61EB020161
:101CE0002D2202E0220504D52B228DF804200122AA
:101CF00003E0E20701D02022F7E7904659E00A21ED
:101D000002E010220DE010214FF0000A00910BE0DC
:101D100010224FF0000A44F004040827009203E068
:101D200008224FF0000A0092C4F30252022A05D0A2
:101D300059F804CB0021032A08D009E009F1070172
:101D400021F00702F2E802C1914605E01FFA8CFC7F
:101D5000042A01D10CF0FF0C4FF00008220728D50F
:101D6000702806D0009B83F0100353EA0A0305D0C5
:101D70000EE040228DF80420012208E05CEA010216
:101D800006D030228DF804208DF8050002229046FE
:101D9000009B83F0080353EA0A030AD15CEA0102BC
:101DA00001D1620705D530228DF804204FF00108DB
:101DB0007F1E582804D034A003900EA802900DE096
:101DC00036A0F9E753466046009AFEF7E1FB8446E9
:101DD0000398825C0298401E029002705CEA010047
:101DE000F0D1029806A9081A00F1200A600702D56E
:101DF00024F4803400E00127574502DDA7EB0A00F8
:101E000000E0002000EB0A01009005984144401AD0
:101E10000590E00306D45B462146179A059800F02A
:101E2000B3F90544002706E001A85A46C05D17999A
:101E300090476D1C7F1C4745F6DBE0030CD55B46E5
:101E40002146179A059800F09FF9054404E03020D8
:101E50005A46179990476D1C0099481E009000291A
:101E6000F5DC08E0029802995A460078491C029174
:101E7000179990476D1CBAF10001AAF1010AF1DC33
:101E800065E100000928010030313233343536373E
:101E900038396162636465660000000030313233B6
:101EA0003435363738394142434445460000000056
:101EB00000F058F90544761C307800287FF4ECAD2A
:101EC00019B02846BDE8F08F620700D4062709F153
:101ED000070222F0070CFCE80223E14603F0004869
:101EE0005FEA080C02D00FF2702C0DE05FEA045C90
:101EF00002D50FF2682C07E05FEAC47C02D00FF233
:101F0000602C01E0AFF2700C4FF0FF3823F000437B
:101F1000CDF850C065280CD006DC452809D04628ED
:101F20001DD047283DD13DE0662818D067287ED1D6
:101F300038E00021112F01DB112000E0781CCDE9F1
:101F4000000106A90EA8FFF7EDFCDDE90F010E9ACE
:101F500003910021009207F1010A04914DE04FF036
:101F600000400097CDE9011006A90EA8FFF7DAFCA2
:101F7000DDE90F0203920E9B11990022DDF80CA0FF
:101F80000093049211B9791C00EB010AB7EB0A0027
:101F900004D4C0F1FF3007F1010A0490AAEB070056
:101FA000019044E0012F00DA01270021112F01DD0B
:101FB000112000E03846CDE9000106A90EA8FFF780
:101FC000B1FCDDE90F010E9A03910021049100920A
:101FD000BA4621070CD40399514500DA8A46BAF172
:101FE000010F05DD009AAAF10101515C302908D0EA
:101FF000B84202DA10F1040F06DA0121CDE901102E
:1020000015E0AAF10101E9E7002805DC0499014483
:102010000491AAEB000102E0411C514500DD8A4613
:102020000499401A401C01904FF000400290200794
:1020300004D40198504501DBCDF8048000208DF8D0
:102040004F0002980DF14F07B0F1004F25D02B2023
:102050000E9002984FF0020800280CDA40420290DD
:102060002D200E9007E00A210298FEF77BFA30310E
:10207000029007F8011DB8F10001A8F10108F2DC97
:1020800002980028EFD1791E0E980870307800F081
:10209000200040F0450007F8020D12A8C01B00F117
:1020A00007081498007800B1012000EB0A0101989C
:1020B00001EBE07105984144401A401E0590E00391
:1020C00006D45B462146179A059800F05DF8054452
:1020D0001498007818B15A46179990476D1CE00380
:1020E00024D55B462146179A059800F04DF8054423
:1020F0001CE00498002807DBDDE90301884203DDCA
:102100000098405C179901E0179930205A46904793
:10211000049805F10105401C04900198401E0190AF
:1021200004D12E205A46179990476D1CBAF1000130
:10213000AAF1010ADDDC05E017F8010B5A461799F0
:1021400090476D1CB8F10001A8F10108F4DC5B4672
:102150002146179A0598ABE62D0000002B000000E1
:10216000200000002DE9F041044600251E461746D8
:10217000880404D405E039462020B0476D1C641E55
:10218000F9D52846BDE8F0812DE9F0410446002547
:102190001E469046C80301D5302700E0202788045A
:1021A00004D505E041463846B0476D1C641EF9D59C
:1021B0002846BDE8F08100002DE9F05F04466E4836
:1021C0000D4680460830CCC86CA0FFF78BFB002280
:1021D0006D4B20462946FEF7E0F8044602460D46C0
:1021E0000B466AA0FFF77EFBD8E904236AA0FFF73D
:1021F00079FB32463B4620462946FEF756F88A468A
:1022000081460022674BFEF795F928D232463B46BD
:1022100000206549FEF749F802460B4648465146FC
:10222000FEF7BBF80D460446604A614BFEF743F8E3
:1022300006460F465F4A604B20462946FEF73BF8AC
:1022400022462B46FEF737F832463B46FDF78CFF19
:102250005A4A5B4BFDF788FF04460D4687E0464629
:102260002046D6E902232946FEF71FF8002213462E
:10227000FEF748F906D2D6E902431D46224651A090
:10228000FFF730FBD6E90223D6E9040190469946D0
:10229000FEF70BF806460F4642464B4620462946B7
:1022A000FEF703F832463B46FEF777F8064602464D
:1022B0000F460B4646A0FFF715FB484A484B3046F1
:1022C0003946FDF7F8FF04460D46464A464B304670
:1022D0003946FDF7F0FF32463B46FDF7ECFF22465C
:1022E0002B46FDF741FF414A414BFDF73DFF0446B8
:1022F0000D4600223F4B30463946FDF7DCFF824653
:102300008B4600223C4B30463946FDF7D4FF32461F
:102310003B46FDF7D0FF804689460022374B3046CA
:102320003946FDF7C8FF32463B46FDF7C4FF32464B
:102330003B46FDF7C0FF42464B46FDF7B6FF52460F
:102340005B46FDF711FF2E4A2E4BFDF7AEFF074609
:102350000E4602460B4620462946FEF7EBF801D30F
:102360003C46354622462B4627A0FFF7BBFA2046BF
:102370002946BDE8F09F00003000002064616D69CF
:102380006E3A25660A0000000000594064617461DD
:102390003A25660A0000000064616D61783A25669E
:1023A0000A0000000000694090F1F1405DDC460346
:1023B000780BE03FF6285C8FC2B53640C3F5285C49
:1023C0008FA240406572726F723A2566000000006D
:1023D0006461746167793A25660A000057EC2FBB87
:1023E000270FEB3FF2D24D6210582040273108AC46
:1023F0001C5AF03F00D0A440007AAA4000A89640A2
:102400009A99999999BD8540726573756C743A254E
:10241000660A000004490A885206FCD5024AC1B285
:10242000121D118070470000003801401CB50225C4
:10243000FEF7C4F94FF4E130FFF7ACF9FEF79EFD6B
:10244000FEF735FAFEF702FFFEF746FCFEF782FFC5
:10245000FEF72EFFFEF786F90020FEF75FFF4FF430
:102460007A70FEF7C9F90223A7A203211E20FFF705
:1024700003F8A84FDFF8A0A2DFF8A0B2A84C4FF4F1
:1024800080784FF0200941463846FEF7FDFE0028CF
:102490007ED1A448C0F800900026A1490020FEF794
:1024A000C5F92068FDF7E8FF9F4B0022CDE9002326
:1024B00052465B46FEF786FEC4E906010520FEF79C
:1024C0009BF9761CF6B2C82EE7D30020C4E90800B9
:1024D000C4E90A00022D02D0012D31D062E0934EF2
:1024E000D4E9060100223346FDF757FFC4E9020193
:1024F00002460B468EA0FFF7F5F9FEF70BFF6420AE
:10250000FEF77AF902238EA219460A20FEF7B4FFDD
:1025100002238FA205210020FEF7AEFFD4E90201BD
:1025200000223346FDF739FFFDF7D2FF02460521B1
:102530003C20FFF70DF87B49091FC1F8009031E0FE
:102540007A4ED4E9060100223346FDF726FFC4E99E
:10255000040102460B4680A0FFF7C4F9FEF7DAFE3D
:102560006420FEF749F902237FA219460A20FEF7EC
:1025700083FF022380A205210020FEF77DFFD4E91E
:10258000040100223346FDF708FFFDF7A1FF00E03C
:102590000AE0024605213C20FEF7DAFF6148001FF1
:1025A000C0F800906D1EEDB2002D7FF46CAF41F2CB
:1025B0008830FEF721F9FEF7ADFE00265FF01E051C
:1025C00005EB0610C0B232460021FEF731FF761C43
:1025D000F6B2042EF4D3022369A203210020FEF7F1
:1025E0004BFF022368A205210020FEF745FF00BF34
:1025F0004FF400714748FEF747FE0028F8D14948DC
:102600004F46C0F80090002645490020FEF70EF91D
:102610002068FDF731FF444B0022CDE900235246EC
:102620005B46FEF7CFFDC4E906010520FEF7E4F89E
:10263000761CF6B2C82EE7D30020C4E90800C4E92E
:102640000A00534920680144524881422FD2D4E9FC
:102650000601FFF7B1FD00224F4BFDF785FDFDF7A9
:1026600018FFC0B2014600904CA0FFF73BF9FEF7FF
:1026700051FE002605EB0610C0B232460021FEF7DF
:10268000D7FE761CF6B2042EF4D3022345A2032112
:102690000020FEF7F1FE02233BA205210020FEF7F9
:1026A000EBFE05211E20009AFEF752FF19E0FEF70F
:1026B00031FE002605EB0610C0B232460021FEF7BF
:1026C000B7FE761CF6B2042EF4D3022338A20321FF
:1026D0000020FEF7D1FE02232BA205210020FEF7E9
:1026E000CBFE1048464641461438FEF7DBFA41F26D
:1026F0008830FEF781F80B4831461438FEF7D0FADF
:102700000848001F076073E757656C636F6D6521AC
:1027100000000000001001409A9999999999A93FE9
:1027200030000020140C014000001440000059400B
:102730006D696E5F76616C7565313A25660A0000D9
:10274000436F7272656374696F6E3A310000000006
:1027500056616C7565313A006D61785F76616C75B4
:1027600065323A25660A0000436F727265637469C8
:102770006F6E3A320000000056616C7565323A00A7
:1027800053746174653A00004E756D3A00000000A4
:10279000BFBDF0FF3F5489000000E03F6E756D3A09
:1027A0002564000053746174653A4F4B00000000CB
:1027B00053746174653A412D42204552524F522163
:1027C000000000000000000000000000002F0000DA
:1027D00000000700070000147F147F1400242A7FE4
:1027E0002A12006264081323003649552250000063
:1027F0000503000000001C224100000041221C00D3
:102800000014083E08140008083E0808000000A054
:102810006000000808080808000060600000002050
:1028200010080402003E5149453E0000427F40002E
:10283000004261514946002141454B3100181412B4
:102840007F10002745454539003C4A494930000181
:102850007109050300364949493600064949291ED0
:102860000000363600000000563600000008142232
:102870004100001414141414000041221408000232
:102880000151090600324959513E007C1211127C57
:10289000007F49494936003E41414122007F414184
:1028A000221C007F49494941007F09090901003E76
:1028B0004149497A007F0808087F0000417F4100B4
:1028C000002040413F01007F08142241007F40402A
:1028D0004040007F020C027F007F0408107F003E12
:1028E0004141413E007F09090906003E4151215EF8
:1028F000007F091929460046494949310001017FF5
:102900000101003F4040403F001F2040201F003F8A
:102910004038403F0063140814630007087008073C
:1029200000615149454300007F41410000552A554F
:102930002A55000041417F000004020102040040CA
:1029400040404040000001020400002054545478EC
:10295000007F48444438003844444420003844440C
:10296000487F00385454541800087E0901020018AA
:10297000A4A4A47C007F080404780000447D4000E7
:10298000004080847D00007F102844000000417FCB
:102990004000007C04180478007C080404780038A7
:1029A0004444443800FC242424180018242418FC2F
:1029B000007C0804040800485454542000043F4498
:1029C0004020003C4040207C001C2040201C003C5B
:1029D0004030403C004428102844001CA0A0A07CAB
:1029E000004464544C4414141414141400000000E3
:1029F000000000000000000000000000000000F8DF
:102A000000000000000000333000000000100C0641
:102A1000100C0600000000000000000040C07840DC
:102A2000C0784000043F04043F040400007088FCA8
:102A300008300000001820FF211E0000F008F00000
:102A4000E018000000211C031E211E0000F0088871
:102A5000700000001E2123241927211010160E00DB
:102A6000000000000000000000000000000000E086
:102A7000180402000000000718204000000204189B
:102A8000E00000000040201807000000404080F0F7
:102A9000804040000202010F01020200000000F02D
:102AA000000000000101011F010101000000000001
:102AB0000000000080B07000000000000000000076
:102AC00000000000000101010101010100000000FF
:102AD0000000000000303000000000000000000096
:102AE00080601804006018060100000000E0100873
:102AF0000810E000000F102020100F00001010F848
:102B0000000000000020203F202000000070080886
:102B10000888700000302824222130000030088806
:102B2000884830000018202020110E000000C0202E
:102B300010F8000000070424243F240000F808884F
:102B4000880808000019212020110E0000E01088DC
:102B500088180000000F112020110E00003808080E
:102B6000C83808000000003F00000000007088081E
:102B700008887000001C222121221C0000E010089F
:102B80000810E0000000312222110F00000000C0F8
:102B9000C000000000000030300000000000008095
:102BA0000000000000008060000000000000804085
:102BB000201008000001020408102000404040409E
:102BC00040404000040404040404040000081020F1
:102BD0004080000000201008040201000070480836
:102BE0000808F0000000003036010000C030C8289E
:102BF000E810E0000718272423140B000000C03859
:102C0000E0000000203C23020227382008F88888D2
:102C100088700000203F202020110E00C0300808DE
:102C200008083800071820202010080008F80808B5
:102C30000810E000203F202020100F0008F88888AE
:102C4000E8081000203F20202320180008F888887A
:102C5000E8081000203F200003000000C0300808F2
:102C60000838000007182020221E020008F808007B
:102C70000008F808203F210101213F20000808F842
:102C8000080800000020203F202000000000080865
:102C9000F8080800C08080807F00000008F888C025
:102CA00028180800203F20012638200008F80800D6
:102CB00000000000203F20202020300008F8F8000D
:102CC000F8F80800203F003F003F200008F830C01F
:102CD0000008F808203F200007183F00E01008080F
:102CE0000810E0000F10202020100F0008F808083E
:102CF0000808F000203F210101010000E010080851
:102D00000810E0000F18242438504F0008F8888875
:102D100088887000203F2000030C30200070880855
:102D2000080838000038202121221C00180808F863
:102D3000080818000000203F2000000008F80800E4
:102D40000008F808001F202020201F0008788800B5
:102D500000C83808000007380E010000F80800F825
:102D60000008F800033C0700073C030008186880CF
:102D70008068180820302C03032C30200838C80045
:102D8000C83808000000203F200000001008080894
:102D9000C83808002038262120201800000000FE36
:102DA000020202000000007F40404000000C30C0E2
:102DB00000000000000000010638C000000202020E
:102DC000FE000000004040407F00000000000402C0
:102DD00002020400000000000000000000000000EB
:102DE00000000000808080808080808000020204DB
:102DF00000000000000000000000000000008080D3
:102E0000808000000019242222223F2008F8008040
:102E100080000000003F112020110E000000008003
:102E200080800000000E1120202011000000008092
:102E30008088F800000E112020103F2000008080C4
:102E400080800000001F222222221300008080F0D8
:102E5000888888180020203F202000000000808003
:102E600080808000006B94949493600008F8008048
:102E700080800000203F210000203F2000809898A3
:102E8000000000000020203F202000000000008003
:102E90009898000000C08080807F000008F8000043
:102EA00080808000203F24022D302000000808F898
:102EB000000000000020203F202000008080808053
:102EC00080808000203F20003F20003F80800080E5
:102ED00080800000203F210000203F2000008080F3
:102EE00080800000001F202020201F0080800080A4
:102EF0008000000080FFA12020110E000000008053
:102F000080808000000E112020A0FF808080800043
:102F10008080800020203F21200001000000808070
:102F2000808080000033242424241900008080E065
:102F3000808000000000001F202000008080000032
:102F400000808000001F202020103F208080800013
:102F50000080808000010E30080601008080008023
:102F6000008080800F300C030C300F000080800048
:102F7000808080000020312E0E3120008080800073
:102F80000080808080818E70180601000080808023
:102F9000808080000021302C2221300000000000C1
:102FA000807C020200000000003F40400000000062
:102FB000FF00000000000000FF0000000002027C93
:102FC000800000000040403F0000000000060101BA
:102FD000020204040000000000000000FC2F0008B2
:102FE00000000020E800000004190008E430000898
:102FF000E8000020200400001419000800A24A0480
:103000000000000000000000010203040607080998
:103010000204060800000000010203040102030488
:103020000607080900000000000000000000000082
:103030000000000000000000800BE34000000000E2
:10304000B082F1400000000000000000000000001D
:103050000000000000000000000000000000000070
:103060001060028C00FE02F202FE00F800FF000079
:1030700004047E018047300F10270047807F000046
:103080002030AC633000FC848484FE828382800024
:10309000226722121200FF402000010E3040F8008B
:1030A000000022322AA6A26221110981010000003B
:1030B000004222130B42827E02020A1223460000C3
:1030C0002030AC63300088C8A8998E88A8C88800D2
:1030D00022672212128040300F00003F40407100F2
:0430E00000000000EC
:0400000508000131BD
:00000001FF
